{
  "address": "0x544D512328Dc8b9481aA8eE343D2302bEe9b3Cc6",
  "abi": [
    {
      "inputs": [
        {
          "internalType": "address",
          "name": "_owner",
          "type": "address"
        },
        {
          "internalType": "address",
          "name": "_tokenAddress",
          "type": "address"
        }
      ],
      "stateMutability": "nonpayable",
      "type": "constructor"
    },
    {
      "anonymous": false,
      "inputs": [
        {
          "indexed": true,
          "internalType": "address",
          "name": "greetingSetter",
          "type": "address"
        },
        {
          "indexed": false,
          "internalType": "string",
          "name": "newGreeting",
          "type": "string"
        },
        {
          "indexed": false,
          "internalType": "bool",
          "name": "premium",
          "type": "bool"
        },
        {
          "indexed": false,
          "internalType": "uint256",
          "name": "value",
          "type": "uint256"
        }
      ],
      "name": "GreetingChange",
      "type": "event"
    },
    {
      "inputs": [],
      "name": "beneficiary",
      "outputs": [
        {
          "internalType": "address",
          "name": "",
          "type": "address"
        }
      ],
      "stateMutability": "view",
      "type": "function"
    },
    {
      "inputs": [],
      "name": "getNZDDContractBalance",
      "outputs": [
        {
          "internalType": "uint256",
          "name": "",
          "type": "uint256"
        }
      ],
      "stateMutability": "view",
      "type": "function"
    },
    {
      "inputs": [],
      "name": "greeting",
      "outputs": [
        {
          "internalType": "string",
          "name": "",
          "type": "string"
        }
      ],
      "stateMutability": "view",
      "type": "function"
    },
    {
      "inputs": [],
      "name": "nzddToken",
      "outputs": [
        {
          "internalType": "contract IERC20",
          "name": "",
          "type": "address"
        }
      ],
      "stateMutability": "view",
      "type": "function"
    },
    {
      "inputs": [],
      "name": "owner",
      "outputs": [
        {
          "internalType": "address",
          "name": "",
          "type": "address"
        }
      ],
      "stateMutability": "view",
      "type": "function"
    },
    {
      "inputs": [],
      "name": "premium",
      "outputs": [
        {
          "internalType": "bool",
          "name": "",
          "type": "bool"
        }
      ],
      "stateMutability": "view",
      "type": "function"
    },
    {
      "inputs": [
        {
          "internalType": "address",
          "name": "_beneficiary",
          "type": "address"
        }
      ],
      "name": "setBeneficiary",
      "outputs": [],
      "stateMutability": "nonpayable",
      "type": "function"
    },
    {
      "inputs": [
        {
          "internalType": "string",
          "name": "_newGreeting",
          "type": "string"
        }
      ],
      "name": "setGreeting",
      "outputs": [],
      "stateMutability": "payable",
      "type": "function"
    },
    {
      "inputs": [
        {
          "internalType": "address",
          "name": "_token",
          "type": "address"
        }
      ],
      "name": "setPaymentToken",
      "outputs": [],
      "stateMutability": "nonpayable",
      "type": "function"
    },
    {
      "inputs": [],
      "name": "totalCounter",
      "outputs": [
        {
          "internalType": "uint256",
          "name": "",
          "type": "uint256"
        }
      ],
      "stateMutability": "view",
      "type": "function"
    },
    {
      "inputs": [
        {
          "internalType": "address",
          "name": "",
          "type": "address"
        }
      ],
      "name": "userGreetingCounter",
      "outputs": [
        {
          "internalType": "uint256",
          "name": "",
          "type": "uint256"
        }
      ],
      "stateMutability": "view",
      "type": "function"
    },
    {
      "inputs": [],
      "name": "withdraw",
      "outputs": [],
      "stateMutability": "nonpayable",
      "type": "function"
    },
    {
      "inputs": [
        {
          "internalType": "uint256",
          "name": "amount",
          "type": "uint256"
        }
      ],
      "name": "withdrawNZDD",
      "outputs": [],
      "stateMutability": "nonpayable",
      "type": "function"
    },
    {
      "stateMutability": "payable",
      "type": "receive"
    }
  ],
  "transactionHash": "0xd5f94d36633e74f61caa6c70774893409bb7879bb1cb4acd5f5c8c803fa1c520",
  "args": [
    "0x0f238b58a3fb991cd576731a594a913b01335803",
    "0xE91d143072fc5e92e6445f18aa35DBd43597340c"
  ],
  "numDeployments": 3,
  "solcInputHash": "0355c9636afe7f2fd116c5d183006253",
  "bytecode": "0x60e0604052601c60a09081527f4275696c64696e6720556e73746f707061626c6520417070732121210000000060c0526002906200003e90826200014c565b506003805460ff1916905560006004553480156200005b57600080fd5b5060405162000f7038038062000f708339810160408190526200007e9162000235565b6001600160a01b03918216608052600180546001600160a01b031916919092161790556200026d565b634e487b7160e01b600052604160045260246000fd5b600181811c90821680620000d257607f821691505b602082108103620000f357634e487b7160e01b600052602260045260246000fd5b50919050565b601f8211156200014757600081815260208120601f850160051c81016020861015620001225750805b601f850160051c820191505b8181101562000143578281556001016200012e565b5050505b505050565b81516001600160401b03811115620001685762000168620000a7565b6200018081620001798454620000bd565b84620000f9565b602080601f831160018114620001b857600084156200019f5750858301515b600019600386901b1c1916600185901b17855562000143565b600085815260208120601f198616915b82811015620001e957888601518255948401946001909101908401620001c8565b5085821015620002085787850151600019600388901b60f8161c191681555b5050505050600190811b01905550565b80516001600160a01b03811681146200023057600080fd5b919050565b600080604083850312156200024957600080fd5b620002548362000218565b9150620002646020840162000218565b90509250929050565b608051610cd9620002976000396000818161019b015281816102aa01526104980152610cd96000f3fe6080604052600436106100c65760003560e01c806397feba9d1161007f578063cea49c3c11610059578063cea49c3c14610206578063e0a73a9314610233578063ef690cc01461025d578063f111546f1461027f57600080fd5b806397feba9d146101bd578063a4136862146101d3578063c9c1d8ea146101e657600080fd5b80631c31f710146100d257806338af3eed146100f45780633ccfd60b1461013157806347abd022146101465780636a326ab1146101695780638da5cb5b1461018957600080fd5b366100cd57005b600080fd5b3480156100de57600080fd5b506100f26100ed36600461090c565b61029f565b005b34801561010057600080fd5b50600054610114906001600160a01b031681565b6040516001600160a01b0390911681526020015b60405180910390f35b34801561013d57600080fd5b506100f261032e565b34801561015257600080fd5b5061015b61041b565b604051908152602001610128565b34801561017557600080fd5b506100f261018436600461090c565b61048d565b34801561019557600080fd5b506101147f000000000000000000000000000000000000000000000000000000000000000081565b3480156101c957600080fd5b5061015b60045481565b6100f26101e1366004610952565b610517565b3480156101f257600080fd5b50600154610114906001600160a01b031681565b34801561021257600080fd5b5061015b61022136600461090c565b60056020526000908152604090205481565b34801561023f57600080fd5b5060035461024d9060ff1681565b6040519015158152602001610128565b34801561026957600080fd5b506102726105e9565b6040516101289190610a49565b34801561028b57600080fd5b506100f261029a366004610a5c565b610677565b336001600160a01b037f0000000000000000000000000000000000000000000000000000000000000000161461030c5760405162461bcd60e51b815260206004820152600d60248201526c2737ba103a34329027bbb732b960991b60448201526064015b60405180910390fd5b600080546001600160a01b0319166001600160a01b0392909216919091179055565b6000546001600160a01b0316331461037e5760405162461bcd60e51b81526020600482015260136024820152724e6f74207468652042656e656669636961727960681b6044820152606401610303565b600080546040516001600160a01b039091169047908381818185875af1925050503d80600081146103cb576040519150601f19603f3d011682016040523d82523d6000602084013e6103d0565b606091505b50509050806104185760405162461bcd60e51b81526020600482015260146024820152732330b4b632b2103a379039b2b7321022ba3432b960611b6044820152606401610303565b50565b6001546040516370a0823160e01b81523060048201526000916001600160a01b0316906370a0823190602401602060405180830381865afa158015610464573d6000803e3d6000fd5b505050506040513d601f19601f820116820180604052508101906104889190610a75565b905090565b336001600160a01b037f000000000000000000000000000000000000000000000000000000000000000016146104f55760405162461bcd60e51b815260206004820152600d60248201526c2737ba103a34329027bbb732b960991b6044820152606401610303565b600180546001600160a01b0319166001600160a01b0392909216919091179055565b61053a604051806060016040528060218152602001610c836021913982336108a5565b60026105468282610b16565b5060016004600082825461055a9190610bd6565b909155505033600090815260056020526040812080546001929061057f908490610bd6565b9091555050341561059c576003805460ff191660011790556105a7565b6003805460ff191690555b60405133907f94cbd7e04dca26a7667654f6448b2ca0a40fec602118dc5fd8c82b9cf3c645ad906105de9084903480151591610bfd565b60405180910390a250565b600280546105f690610a8e565b80601f016020809104026020016040519081016040528092919081815260200182805461062290610a8e565b801561066f5780601f106106445761010080835404028352916020019161066f565b820191906000526020600020905b81548152906001019060200180831161065257829003601f168201915b505050505081565b6000546001600160a01b031633146106c75760405162461bcd60e51b81526020600482015260136024820152724e6f74207468652042656e656669636961727960681b6044820152606401610303565b600081116107175760405162461bcd60e51b815260206004820152601d60248201527f616d6f756e74206d7573742062652067726561746572207468616e20300000006044820152606401610303565b6001546040516370a0823160e01b81523060048201526000916001600160a01b0316906370a0823190602401602060405180830381865afa158015610760573d6000803e3d6000fd5b505050506040513d601f19601f820116820180604052508101906107849190610a75565b9050808211156107d65760405162461bcd60e51b815260206004820152601d60248201527f4e6f7420656e6f75676820746f6b656e7320696e20636f6e74726163740000006044820152606401610303565b6001546000805460405163a9059cbb60e01b81526001600160a01b039182166004820152602481018690529192169063a9059cbb906044016020604051808303816000875af115801561082d573d6000803e3d6000fd5b505050506040513d601f19601f820116820180604052508101906108519190610c22565b9050806108a05760405162461bcd60e51b815260206004820152601760248201527f546f6b656e207769746864726177616c206661696c65640000000000000000006044820152606401610303565b505050565b6108a08383836040516024016108bd93929190610c44565b60408051601f198184030181529190526020810180516001600160e01b03166395ed019560e01b1790526104188160006a636f6e736f6c652e6c6f679050600080835160208501845afa505050565b60006020828403121561091e57600080fd5b81356001600160a01b038116811461093557600080fd5b9392505050565b634e487b7160e01b600052604160045260246000fd5b60006020828403121561096457600080fd5b813567ffffffffffffffff8082111561097c57600080fd5b818401915084601f83011261099057600080fd5b8135818111156109a2576109a261093c565b604051601f8201601f19908116603f011681019083821181831017156109ca576109ca61093c565b816040528281528760208487010111156109e357600080fd5b826020860160208301376000928101602001929092525095945050505050565b6000815180845260005b81811015610a2957602081850181015186830182015201610a0d565b506000602082860101526020601f19601f83011685010191505092915050565b6020815260006109356020830184610a03565b600060208284031215610a6e57600080fd5b5035919050565b600060208284031215610a8757600080fd5b5051919050565b600181811c90821680610aa257607f821691505b602082108103610ac257634e487b7160e01b600052602260045260246000fd5b50919050565b601f8211156108a057600081815260208120601f850160051c81016020861015610aef5750805b601f850160051c820191505b81811015610b0e57828155600101610afb565b505050505050565b815167ffffffffffffffff811115610b3057610b3061093c565b610b4481610b3e8454610a8e565b84610ac8565b602080601f831160018114610b795760008415610b615750858301515b600019600386901b1c1916600185901b178555610b0e565b600085815260208120601f198616915b82811015610ba857888601518255948401946001909101908401610b89565b5085821015610bc65787850151600019600388901b60f8161c191681555b5050505050600190811b01905550565b80820180821115610bf757634e487b7160e01b600052601160045260246000fd5b92915050565b606081526000610c106060830186610a03565b93151560208301525060400152919050565b600060208284031215610c3457600080fd5b8151801515811461093557600080fd5b606081526000610c576060830186610a03565b8281036020840152610c698186610a03565b91505060018060a01b038316604083015294935050505056fe53657474696e67206e6577206772656574696e6720272573272066726f6d202573a26469706673582212207aa183013aa50156f0b0e5fa4f90b47c0ff0237fefce72f5ac94852569aa611264736f6c63430008140033",
  "devdoc": {
    "author": "BuidlGuidl",
    "kind": "dev",
    "methods": {
      "setGreeting(string)": {
        "params": {
          "_newGreeting": "(string memory) - new greeting to save on the contract"
        }
      }
    },
    "version": 1
  },
  "userdoc": {
    "kind": "user",
    "methods": {
      "setGreeting(string)": {
        "notice": "Function that allows anyone to change the state variable \"greeting\" of the contract and increase the counters"
      },
      "withdraw()": {
        "notice": "Function that allows the owner to withdraw all the Ether in the contract The function can only be called by the owner of the contract as defined by the isOwner modifier"
      }
    },
    "notice": "A smart contract that allows changing a state variable of the contract and tracking the changes It also allows the owner to withdraw the Ether in the contract",
    "version": 1
  },
  "storageLayout": {
    "storage": [
      {
        "astId": 86,
        "contract": "contracts/YourContract.sol:YourContract",
        "label": "beneficiary",
        "offset": 0,
        "slot": "0",
        "type": "t_address"
      },
      {
        "astId": 89,
        "contract": "contracts/YourContract.sol:YourContract",
        "label": "nzddToken",
        "offset": 0,
        "slot": "1",
        "type": "t_contract(IERC20)77"
      },
      {
        "astId": 92,
        "contract": "contracts/YourContract.sol:YourContract",
        "label": "greeting",
        "offset": 0,
        "slot": "2",
        "type": "t_string_storage"
      },
      {
        "astId": 95,
        "contract": "contracts/YourContract.sol:YourContract",
        "label": "premium",
        "offset": 0,
        "slot": "3",
        "type": "t_bool"
      },
      {
        "astId": 98,
        "contract": "contracts/YourContract.sol:YourContract",
        "label": "totalCounter",
        "offset": 0,
        "slot": "4",
        "type": "t_uint256"
      },
      {
        "astId": 102,
        "contract": "contracts/YourContract.sol:YourContract",
        "label": "userGreetingCounter",
        "offset": 0,
        "slot": "5",
        "type": "t_mapping(t_address,t_uint256)"
      }
    ],
    "types": {
      "t_address": {
        "encoding": "inplace",
        "label": "address",
        "numberOfBytes": "20"
      },
      "t_bool": {
        "encoding": "inplace",
        "label": "bool",
        "numberOfBytes": "1"
      },
      "t_contract(IERC20)77": {
        "encoding": "inplace",
        "label": "contract IERC20",
        "numberOfBytes": "20"
      },
      "t_mapping(t_address,t_uint256)": {
        "encoding": "mapping",
        "key": "t_address",
        "label": "mapping(address => uint256)",
        "numberOfBytes": "32",
        "value": "t_uint256"
      },
      "t_string_storage": {
        "encoding": "bytes",
        "label": "string",
        "numberOfBytes": "32"
      },
      "t_uint256": {
        "encoding": "inplace",
        "label": "uint256",
        "numberOfBytes": "32"
      }
    }
  }
}